:020000040000FA
:1000000098020010690100007101000073010000F6
:100010007501000077010000790100000000000078
:100020000000000000000000000000007B01000054
:100030007D010000000000007F0100008101000040
:1000400083010000830100008301000083010000A0
:100050008301000083010000830100008301000090
:100060008301000083010000830100008301000080
:100070008301000083010000830100008301000070
:100080008301000083010000830100008301000060
:100090008301000083010000830100008301000050
:1000A0008301000083010000830100008301000040
:1000B0008301000083010000830100008301000030
:1000C00083010000830100008301000000F002F8BA
:1000D00000F03AF80AA090E8000C82448344AAF1A8
:1000E0000107DA4501D100F02FF8AFF2090EBAE8A6
:1000F0000F0013F0010F18BFFB1A43F0010318475C
:100100002006000040060000103A24BF78C878C1DD
:10011000FAD8520724BF30C830C144BF04680C600D
:10012000704700000023002400250026103A28BF55
:1001300078C1FBD8520728BF30C148BF0B60704759
:100140001FB51FBD10B510BD00F0A6F81146FFF792
:10015000F7FF00F063FA00F0C4F803B4FFF7F2FF12
:1001600003BC00F0D7FA000009488047094800475F
:10017000FEE7FEE7FEE7FEE7FEE7FEE7FEE7FEE757
:10018000FEE7FEE704480549034A054B70470000B7
:10019000A9040000CD000000980000109802001093
:1001A0009800001053EA020C00F069802DE9F04B32
:1001B0004FF00006002B1FBFB3FA83F503FA05F4D6
:1001C00024FA05F65E4012BF1643B2FA82F502FA2F
:1001D00005F4C5F120051EBF22FA05FC44EA0C0413
:1001E000203556EA044C4FEA144418BF641C4FF003
:1001F00000084FF00009904271EB030C39D300293D
:1002000019BFB1FA81F701FA07F6B0FA80F700FAE0
:1002100007F6C7F120071EBF20FA07FC46EA0C06C6
:100220002037B6FBF4FCA7EB0507103F07F01F0BC8
:10023000CBF120060CFA0BFB2CFA06F644BFB346B2
:100240000026202FA4BF5E464FF0000B5BEA060C91
:1002500008BF4FF0010B19EB0B09ABFB027C48EB1D
:100260000608C01B06FB02CC0BFB03CC71EB0C0198
:10027000C1E70B46024641464846BDE8F08B13B540
:100280004FF000004FF00001AFF30080BDE81C40CC
:100290007047704770477047754600F029F8AE46C2
:1002A00005006946534620F00700854618B020B582
:1002B000FFF768FFBDE820404FF000064FF0000751
:1002C0004FF000084FF0000B21F00701AC46ACE8FE
:1002D000C009ACE8C009ACE8C009ACE8C0098D466B
:1002E00070470446AFF300802046FFF736FF00005A
:1002F000004870473800001070470000FFFFFFFF04
:100300002DE9F04782480068C0F3016003287CD1E2
:100310008048006810F0030006D0012833D002287E
:100320005FD003282ED100E000BF79480068C0F3F9
:10033000074000F101044FF002017748D0F888002F
:10034000C0F30E0000F10100A1FB0001734B4FF060
:10035000000CA0FB037901FB039100FB0C1122466A
:1003600063463846FFF71EFF05466D480068C0B279
:1003700000F1010422464FF000032846FFF712FF68
:10038000684908605DE062480068C0F3074000F11A
:1003900001044FF002016048D0F88800C0F30E005D
:1003A00000F10100A1FB00105F4A4FF0000CA1FB1F
:1003B000027900FB029001FB0C012246634638469D
:1003C000FFF7F0FE054656480068C0B200F1010490
:1003D00022464FF000032846FFF7E4FE514908602B
:1003E0002FE04B480068C0F3074000F101044FF0D4
:1003F00002014948D0F88800C0F30E0000F1010066
:10040000A1FB00124FF4004000E01BE04FF000039E
:10041000A1FB007902FB009001FB03012246384654
:10042000FFF7C0FE05463E480068C0B200F1010477
:1004300022464FF000032846FFF7B4FE3949086012
:1004400000BF2FE03348006810F0030006D00128F9
:1004500010D0022819D0032823D100E000BF304873
:100460000068C0B200F101002C49B1FBF0F02D4949
:10047000086016E02A480068C0B200F101002A496D
:10048000B1FBF0F0274908600BE025480068C0B2D6
:1004900000F101004FF40041B1FBF0F02149086088
:1004A00000BF00BFBDE8F0872020204908601A483F
:1004B000D0F8A00110F0200F05D000BF1B48006845
:1004C00010F0400FFAD00320154908604FF0A050FB
:1004D0001149C1F8A8014FF00000154908604FF01C
:1004E00001000C4908604FF00400A1F1040108600C
:1004F00010481149086040F201100749C1F8C801CD
:100500000846006820F4704040F48040086070475E
:1005100088C00F400CC10F4000C00F4000093D00D3
:1005200004C10F4000000010001BB700A0C10F4025
:10053000ACC10F40DEF72904C4C00F406748006813
:10054000012807D166480068664908606FF0F060CE
:100550006549486361480068022807D1634800681C
:10056000604908606FF0E0605F4948635B4800687D
:10057000032807D15E4800685A4908606FF0D060D0
:100580005949486355480068042807D1594800680C
:10059000544908606FF0C06053494863514800787F
:1005A00000F00F004F49086053480968405C534908
:1005B00008600846006800010860084600684A496B
:1005C000486100204E49086004E04D480068401C26
:1005D0004B4908604A480068B0F5FA7FF5D34FF4FC
:1005E0007F604149C8616FF0B06048637047002088
:1005F00000E0401CB0F57A7FFBD34249096814291A
:1006000006D1FF21404A117000213E4A116004E0EA
:100610003C490968491C3B4A11607047FFF744FF99
:10062000FFF76EFE394800683949084037490860CD
:100630000846C06820F47F10C8602B48006840F46A
:100640007F60294908600846006A40F0F06008624F
:1006500042E0FFF7CCFF21480068401C1F490860BA
:1006600008460068052801D1002008602648007867
:10067000FF2807D100202449087019480068401E4F
:100680001749086016480068401C23D10920144906
:10069000086016480068401E144908600846006853
:1006A000401C17D10920086011480068401E1049FD
:1006B000086008460068401C0CD1092008600D48FD
:1006C0000068401E0B49086008460068401C01D1C4
:1006D00009200860FFF732FFBBE700001800001098
:1006E000040000101C00001000C0092008000010C9
:1006F0000C00001010000010200000102C00001052
:1007000030000010140000102B00001000C0024048
:10071000FF0000FF01491820ABBEFEE726000200E3
:100720004007000000000010380000000801000031
:10073000780700003800001060020000240100006B
:10074000C0C62D00090000000900000009000000DB
:100750000900000000000000000000000000000090
:100760003F065B4F666D7D077F6F00000000000055
:08077000000000000000000081
:04000005000000CD2A
:00000001FF
