:020000040000FA
:10000000A8020010690100007101000073010000E6
:100010007501000077010000790100000000000078
:100020000000000000000000000000007B01000054
:100030007D010000000000007F0100008101000040
:1000400083010000830100008301000083010000A0
:100050008301000083010000830100008301000090
:100060008301000083010000830100008301000080
:100070008301000083010000830100008301000070
:100080008301000083010000830100008301000060
:100090008301000083010000830100008301000050
:1000A0008301000083010000830100008301000040
:1000B0008301000083010000830100008301000030
:1000C00083010000830100008301000000F002F8BA
:1000D00000F03AF80AA090E8000C82448344AAF1A8
:1000E0000107DA4501D100F02FF8AFF2090EBAE8A6
:1000F0000F0013F0010F18BFFB1A43F0010318475C
:10010000A0070000C0070000103A24BF78C878C1DB
:10011000FAD8520724BF30C830C144BF04680C600D
:10012000704700000023002400250026103A28BF55
:1001300078C1FBD8520728BF30C148BF0B60704759
:100140001FB51FBD10B510BD00F0A6F81146FFF792
:10015000F7FF00F085FA00F0C4F803B4FFF7F2FFF0
:1001600003BC00F097FB000009488047094800479E
:10017000FEE7FEE7FEE7FEE7FEE7FEE7FEE7FEE757
:10018000FEE7FEE704480549034A054B70470000B7
:10019000A9040000CD000000A8000010A802001073
:1001A000A800001053EA020C00F069802DE9F04B22
:1001B0004FF00006002B1FBFB3FA83F503FA05F4D6
:1001C00024FA05F65E4012BF1643B2FA82F502FA2F
:1001D00005F4C5F120051EBF22FA05FC44EA0C0413
:1001E000203556EA044C4FEA144418BF641C4FF003
:1001F00000084FF00009904271EB030C39D300293D
:1002000019BFB1FA81F701FA07F6B0FA80F700FAE0
:1002100007F6C7F120071EBF20FA07FC46EA0C06C6
:100220002037B6FBF4FCA7EB0507103F07F01F0BC8
:10023000CBF120060CFA0BFB2CFA06F644BFB346B2
:100240000026202FA4BF5E464FF0000B5BEA060C91
:1002500008BF4FF0010B19EB0B09ABFB027C48EB1D
:100260000608C01B06FB02CC0BFB03CC71EB0C0198
:10027000C1E70B46024641464846BDE8F08B13B540
:100280004FF000004FF00001AFF30080BDE81C40CC
:100290007047704770477047754600F029F8AE46C2
:1002A00005006946534620F00700854618B020B582
:1002B000FFF768FFBDE820404FF000064FF0000751
:1002C0004FF000084FF0000B21F00701AC46ACE8FE
:1002D000C009ACE8C009ACE8C009ACE8C0098D466B
:1002E00070470446AFF300802046FFF736FF00005A
:1002F000004870474400001070470000FFFFFFFFF8
:100300002DE9F04782480068C0F3016003287CD1E2
:100310008048006810F0030006D0012833D002287E
:100320005FD003282ED100E000BF79480068C0F3F9
:10033000074000F101044FF002017748D0F888002F
:10034000C0F30E0000F10100A1FB0001734B4FF060
:10035000000CA0FB037901FB039100FB0C1122466A
:1003600063463846FFF71EFF05466D480068C0B279
:1003700000F1010422464FF000032846FFF712FF68
:10038000684908605DE062480068C0F3074000F11A
:1003900001044FF002016048D0F88800C0F30E005D
:1003A00000F10100A1FB00105F4A4FF0000CA1FB1F
:1003B000027900FB029001FB0C012246634638469D
:1003C000FFF7F0FE054656480068C0B200F1010490
:1003D00022464FF000032846FFF7E4FE514908602B
:1003E0002FE04B480068C0F3074000F101044FF0D4
:1003F00002014948D0F88800C0F30E0000F1010066
:10040000A1FB00124FF4004000E01BE04FF000039E
:10041000A1FB007902FB009001FB03012246384654
:10042000FFF7C0FE05463E480068C0B200F1010477
:1004300022464FF000032846FFF7B4FE3949086012
:1004400000BF2FE03348006810F0030006D00128F9
:1004500010D0022819D0032823D100E000BF304873
:100460000068C0B200F101002C49B1FBF0F02D4949
:10047000086016E02A480068C0B200F101002A496D
:10048000B1FBF0F0274908600BE025480068C0B2D6
:1004900000F101004FF40041B1FBF0F02149086088
:1004A00000BF00BFBDE8F0872020204908601A483F
:1004B000D0F8A00110F0200F05D000BF1B48006845
:1004C00010F0400FFAD00320154908604FF0A050FB
:1004D0001149C1F8A8014FF00000154908604FF01C
:1004E00001000C4908604FF00400A1F1040108600C
:1004F00010481149086040F201100749C1F8C801CD
:100500000846006820F4704040F48040086070475E
:1005100088C00F400CC10F4000C00F4000093D00D3
:1005200004C10F4000000010001BB700A0C10F4025
:10053000ACC10F40DEF72904C4C00F40C5480068B5
:10054000012812D1C4480068C44908606FF0F06007
:10055000C3494863C148007800F00F00BF490860F4
:10056000C0480968405CC0490860BA480068022871
:1005700012D1BE480068B94908606FF0E060B84920
:100580004863B648007800F00F00B4490860B548E9
:100590000968405CB4490860AE480068032812D17D
:1005A000B3480068AD4908606FF0D060AC4948635B
:1005B000AA48007800F00F00A8490860AD48096813
:1005C000405CA9490860A3480068042812D1AA48E1
:1005D0000068A24908606FF0C060A14948639F4865
:1005E000007800F00F009D4908609E480968405C53
:1005F0009D4908609C48006800019B4908600846C6
:1006000000689749486100209C49086004E09B48C5
:100610000068401C9949086098480068B0F5FA7F66
:10062000F5D34FF47F608E49C8616FF0B0604863C6
:100630007047002000E0401CB0F57A7FFBD3904962
:100640000968142906D1FF218E4A117000218C4AB5
:10065000116004E08A490968491C894A11607047A1
:10066000FFF722FFFFF74CFE8748006887490840E4
:10067000854908600846C06820F47F10C860784843
:10068000006840F47F60764908600846006A40F0E0
:10069000F0600862DDE0FFF7CCFF6E480068401CA8
:1006A0006C49086008460068052801D100200860F0
:1006B00074480078FF280CD10020724908707448F3
:1006C0000078401C7249087063480068401C624909
:1006D00008606348406D10F0010F7DD066480068E7
:1006E000022807D06448006801281CD160480068CF
:1006F000032818D35E480068801E5D4908605E4884
:100700000068401E5C490860594800680A2808D300
:1007100008460068401E0860554800680A30544981
:100720000860FFF70BFF54480068022807D05248C2
:10073000006801281CD14E480068032818D34C4893
:100740000068801E4A4908604B480068401E4A49BC
:100750000860474800680A2808D308460068401E19
:100760000860434800680A3041490860FFF7E6FE28
:10077000394800680A286AD10020374908603B4898
:100780000068401C394908600846006806285ED1A8
:100790000020086036480068401C3549086008465B
:1007A00000680A280CD10020086033480068401C0B
:1007B0003149086008460068062801D10020086019
:1007C0002B480068032842D12B48006801283ED1FD
:1007D00029480068264900E004E008600020264916
:1007E000086034E01C4800680A2830D100201A490B
:1007F00008601E480068401C1C49086008460068E4
:10080000062824D10020086019480068401C1849B7
:100810000860084600680A280CD1002008601648C5
:100820000068401C1449086008460068062801D189
:10083000002008600E480068042808D10E480068AF
:10084000022804D100200A4908600B490860FFF71C
:1008500075FE20E718000010040000101C000010B6
:1008600000C009202000001038000010080000100F
:100870000C0000102A000010100000103C000010B6
:10088000140000103500001000C00240FF0000FFFF
:100890003600001001491820ABBEFEE7260002001A
:1008A000C008000000000010440000000801000023
:1008B000040900004400001064020000240100004C
:1008C000C0C62D0000000000000000000100000074
:1008D0000000000000000000000000000000000018
:1008E0003F065B4F666D7D077F6FBF86DBCFE6ED12
:1008F000FD87FFEF00000000000000000000000086
:0409000000000000F3
:04000005000000CD2A
:00000001FF
